:020000001628C0
:0E000600831203132B088A002A0882000800C8
:1000140003208A110A128000840AAA0A0319AB0A6F
:08002400F003031D0A28080087
:10002C00C03083120313A000F930A100A430A20049
:10003C00B030A3009930A4009230A5008230A60005
:10004C00F830A7008030A8009030A900AC01AD01B9
:10005C0083168601FF308800FF3083128600081457
:10006C00081C5B280330FB000830FC007730FD00D7
:10007C00FD0B3E28FC0B3E28FB0B3E280814081CED
:10008C005B288030F00080302D067002031D502854
:10009C002C08003C031856280130AC02031CAD039D
:1000AC002C08203E8400000886008814881C8028B8
:1000BC000330FB000830FC007730FD00FD0B64289A
:1000CC00FC0B6428FB0B64288814881C8028803067
:1000DC002D06F00080307002031D762809302C02AA
:1000EC0003187B28AC0A0319AD0A2C08203E8400A7
:0800FC00000886003528812868
:02400E004A2F37
:00000001FF
