:020000001628C0
:0E000600831203132B088A002A0882000800C8
:1000140003208A110A128000840AAA0A0319AB0A6F
:08002400F003031D0A28080087
:10002C00C03083120313A000F930A100A430A20049
:10003C00B030A3009930A4009230A5008230A60005
:10004C00F830A7008030A8009030A900AC01AD01B9
:10005C008316860183128601AC01AD018030F0005D
:10006C0080302D067002031D3D282C08093C031C12
:10007C0056282C08203E8400000886000B30FB001C
:10008C002630FC005D30FD00FD0B4A28FC0B4A2895
:10009C00FB0B4A2800000000AC0A0319AD0A3428F7
:0400AC003228572877
:02400E004A2F37
:00000001FF
