:020000001628C0
:0E000600831203132B088A002A0882000800C8
:1000140003208A110A128000840AAA0A0319AB0A6F
:08002400F003031D0A28080087
:10002C00C03083120313A000F930A100A430A20049
:10003C00B030A3009930A4009230A5008230A60005
:10004C00F830A7008030A8009030A900AC01AD01B9
:10005C0083168601FF308800FF3083128600081C4F
:10006C0059280330FB000830FC007730FD00FD0BF5
:10007C003D28FC0B3D28FB0B3D28081C59288030E3
:10008C00F00080302D067002031D4E282C08003C19
:10009C00031854280130AC02031CAD032C08203E7D
:1000AC00840000088600881C7C280330FB00083084
:1000BC00FC007730FD00FD0B6128FC0B6128FB0B6D
:1000CC006128881C7C2880302D06F000803070025E
:1000DC00031D722809302C0203187728AC0A031967
:1000EC00AD0A2C08203E84000008860035287D28A7
:02400E004A2F37
:00000001FF
