:020000007E2858
:1000060083120313F101F20180307206F000803092
:100016007002031D10283230710203182B280614B3
:100026000330FC001230FD00FD0B1728FC0B1728CF
:10003600000006103230FC00DD30FD00FD0B2128EB
:10004600FC0B212800000000F10A0319F20A072818
:020056000800A0
:1000580083120313F101F20180307206F000803040
:100068007002031D3928323071020318542806140F
:100078000630FC00B530FD00FD0B4028FC0B402885
:100088000000000006102F30FC003A30FD00FD0B88
:100098004B28FC0B4B280000F10A0319F20A302800
:0200A80008004E
:1000AA0083120313F101F20180307206F0008030EE
:1000BA007002031D62283230710203187D2806146B
:1000CA000430FC00E430FD00FD0B6928FC0B6928B4
:1000DA00000006103130FC000B30FD00FD0B7328C8
:1000EA00FC0B732800000000F10A0319F20A5928D0
:0200FA000800FC
:1000FC008316031386018312860103201530FB003F
:10010C004B30FC00BE30FD00FD0B8A28FC0B8A280E
:10011C00FB0B8A28000055201530FB004B30FC00EF
:10012C00BE30FD00FD0B9828FC0B9828FB0B982883
:10013C0000002C201530FB004B30FC00BE30FD00C5
:10014C00FD0BA628FC0BA628FB0BA6280000832879
:02015C00AE28CB
:02400E004A2F37
:00000001FF
