:02000000CD2D04
:06000600000000000800EC
:0E000C00213083120313FD00FD0B0A280800AB
:10001A000F3083120313FC004730FD00FD0B132839
:0A002A00FC0B132800000000080082
:0E003400F201F101F001F801F30100300800C3
:10004200FB14FB1F2B28FF30F300F200F100F0003D
:08005200FA0DF20CFF3008006A
:10005A0083120313EC1B33288613342886176C1B70
:10006A003828061339280617EC1A3D2886123E2826
:10007A0086166C1A42280612432806165118472873
:10008A00061548280611861503208611EC194F28F3
:10009A008613502886176C195428061355280617F4
:1000AA00EC18592886125A2886166C185E280612E9
:1000BA005F28061651186328061564280611861546
:1000CA0003208611511C6B280D206C28062008007D
:1000DA007B15FB1F77280130F300F201F101F001D3
:0800EA00FA0DF20CFF300800D2
:0800F200FA1FF21300300800B0
:1000FA008312031351106A08EC002D2051140800D2
:10010A00831203136A08F2007208F100F20A6B08FC
:10011A00F000EB0A700884000008F00071088400FF
:10012A007008800071088400000803199D28892836
:06013A006A08F000080055
:1001400083120313FD01F8017008031900347406CB
:10015000FA00FA1BFD09FB01F41FB028F409F40AA8
:10016000F01FB428F009F00A70087404FA00FA1BB2
:10017000D8287408F802F00D700DF80D7408F8070F
:10018000F00D0630FC00700DF80D74087018F802C0
:10019000701CF807F00DFC0BC328701CF8077B18C7
:1001A000E628FD1F0034F009F00AF809F80A0034C7
:1001B000F41FE328F01BE0287008F800F001D128B4
:1001C000F001F00A0034F009FB0AB928F80A7408B3
:1001D0007802031DD128F801F00AF01FD128FF345E
:0201E000080015
:1001E2000E3083120313FD00FD0BF52800000800FA
:0E01F2008312031350088A004F088200080091
:1002000083120313FB017308031D77080319572991
:1002100072087606FA007708F3077E30031C14296B
:10022000F30203185A291729F302031C5D297208E7
:10023000F8007108FC007008FD00F817F6170310AD
:10024000F201F101F0011830A0007D1C3129740881
:10025000F00775080318750FF10776080318760F75
:10026000F207F20CF10CF00CF80CFC0CFD0C031076
:10027000A00B2529F21B4129F80DF00DF10DF20D0F
:10028000F3037B1B701C5329F81F5329F00A031931
:10029000F10A0319F20A031D5329F20CF10CF00CB8
:1002A000F30A03195A29FA1FF21300305F290130AB
:1002B0001A205F29023021205F2904306D200000C0
:0202C000080034
:1002C20083120313FA017308031D7A147708031DBE
:1002D200FA147A080319AD29033A031978297A180E
:1002E2007529F61FAB29A929F21FA929AB29720882
:1002F2008039FA00F21376088039F6137A06031968
:1003020086297A080319A929AB29770873020319E8
:100312008D29031CA129A5297608720203199429A3
:10032200031CA129A5297508710203199B29031C25
:10033200A129A529740870020319AD290318A5295A
:10034200FA080319AB29A929FA080319A929AB2923
:100352000314080003100800031403150800080022
:06036200FB15FF3008004E
:10036800A0017208031DC9297108F2007008F10084
:10037800F001A0157208031DC9297108F200F101E6
:10038800A011201672080319D7292008F302031DAB
:10039800031CDB290310F21BDF29F00DF10DF20D10
:1003A800F30BCF29DB290130FC001A20E2290230A7
:0E03B800FC006D20E2290430FC0079200800D2
:1003C60083120313DE015E085D078400000803192B
:1003D600F4295E085D0784000008EA007D20DE0A35
:0403E600E6290800FC
:1003EA00072A803083120313DD001A2AC030DD0089
:1003FA001A2A9430DD001A2AD430DD001A2A8030F5
:10040A00DD001A2A831203135D08013A0319F6293B
:10041A005D08023A0319FB295D08033A0319FE290C
:10042A005D08043A0319012A042A5E03F0005D08F4
:10043A00F0077008DD0051147008EC002D205110EF
:0A044A005F08EC002D20511408009B
:10045400831203139F01C0309F043909F000700810
:1004640083169F051F179F1783125D08F000F00D78
:100474007010F00D7010F00D701070089F041F14B0
:10048400F1201F151F1D482A0000442A1F101E08B2
:10049400F100F00183161E08F0040030F104080096
:1004A400831203137408003A031D6D2A7508003A79
:1004B400031D6D2A7608003A031D6D2A7708003A59
:1004C400031D6D2AFF30F000FF30F1007F30F20091
:1004D400FF30F300082B8312031377080319FC2A57
:1004E40073080319FF2A720876068039FA00F21796
:1004F400F617A0017208F8007108FC007008FD00EE
:100504007408FD027508031C750FFC027608031CB1
:10051400760FF802F801FC01FD01031C982A031070
:10052400F20CF10CF00CF80C0130A0007708F30287
:10053400031CA22A7E302007F3070318022BA72AE4
:100544007E302007F307031C052B1830FA07FD0D36
:10055400FC0DF80DF00DF10DF20DA00D7408F00274
:100564007508031C750FF1027608031C760FF2025E
:10057400760DA004201CC02A7D14CB2A7408F00731
:1005840075080318750FF10776080318760AF20741
:100594007D10FA031F307A05031DA92A7B1B7D1CDD
:1005A400F22A0310F00DF10DF20DA00D7408F00203
:1005B4007508031C750FF1027608031C760FF2020E
:1005C400760D20040139FD070318FC0A0319F80A03
:1005D400031DF22AF80CFC0CFD0CF30A0319022B80
:1005E400FA1FF8137808F2007C08F1007D08F00087
:1005F4000030072B0130B121072B02301A20072BC2
:0E06040004302120072B08306D200000080074
:10061200831203137008F8007108F000F101F2016F
:10062200F301FB01FC019630F300FA017008F100BE
:0C0632007808F000F801F201B421080083
:10063E00FF3083120313D200FF30D300FF30D400FB
:10064E00FF309F01C0309F043909F00070088316F7
:0C065E009F051F179F1783121F14080030
:10066A00F9208A110A128000840ACF0A0319D00AD3
:08067A00F003031D352B0800FD
:1006820083160313861106110612861206138613A9
:1006920083128611061186130613861206120D2086
:1006A2000D200D20861606168615032086110D20B4
:1006B2008615032086110D208615032086110D2034
:1006C20006128615032086110D2086150320861139
:1006D200861286178615032086110D2086130616AC
:1006E20086150320861106128615032086110D2019
:1006F20086150320861106168615032086110D2005
:100702000612861503208611861706178616061608
:0C0712008615032086110D2051140800EC
:10071E0083120313E801E9015D08E4005E08E500B9
:10072E005F08E6006008E7006708FF3A031DA92B83
:10073E006608FF3A031DA92B6508FF3A031DA92B76
:10074E006408FF3A031DB32B6108EA003530EB0055
:10075E0085200330F0008C2D0130E200E61FC22B05
:10076E0080306606F0007008E600E20A6108840038
:10077E002D308000E10A0030F0006706031DD12BFA
:10078E0070086606031DD12B70086506031DD12B5C
:10079E006408003A031DDA2B6108EA003A30EB00D8
:1007AE008520F0018C2D6708FF3A031DE82B6608A3
:1007BE00003A031DE82B6508003A031DE82B640878
:1007CE00003A031DF22B6108EA003C30EB00852055
:1007DE006208F0008C2D0030F4000030F50000307F
:1007EE00F6007F30F7006408F0006508F100660837
:1007FE00F2006708F3006121013003180030F000A9
:10080E0070080319252C6408F0006508F1006608CD
:10081E00F2006708F3000030F4000030F5002030DD
:10082E00F6008230F70000217008E4007108E50040
:10083E007208E6007308E700E903F22B0030F400BB
:10084E000030F5002030F6008230F7006408F0002A
:10085E006508F1006608F2006708F30061210130B7
:10086E00031C0030F00070080319582C6408F000C7
:10087E006508F1006608F2006708F300CD30F40059
:10088E00CC30F5004C30F6007B30F70000217008BC
:10089E00E4007108E5007208E6007308E700E90A53
:1008AE00252CFF306405F800FF306505F9007F3018
:1008BE006605FA0000306705FB007808F400790839
:1008CE00F5007A08F6007B08F700F40DF50DF60D2D
:1008DE00F70D741000306405F00000306505F1006E
:1008EE0000306605F200FF306705F3007008E40083
:1008FE007108E5007208E6007308E70074086404E6
:10090E00F00075086504F10076086604F2007708B9
:10091E006704F3007008E4007108E5007208E60051
:10092E007308E7007F306702F0007008E3000130C3
:10093E00E7007008F4006408F0006508F10066082E
:10094E00F2006708F30074080319B42CF00DF10DD2
:10095E00F20DF30D7010FF3EAB2C7008E400710821
:10096E00E5007208E6007308E7006708303EF00005
:10097E006108840070088000E10A80306906F0008A
:10098E008030013A7002031CD52C8030063AF000FC
:10099E00803069067002031CD52CDC2C61088400A3
:1009AE002E308000E10A0130E8000630E3006308D3
:1009BE00003A03193A2DE7016408F0006508F100CA
:1009CE006608F2006708F300F00DF10DF20DF30D5D
:1009DE007010F00DF10DF20DF30D70106408F007AC
:1009EE0065080318650FF10766080318660FF2070E
:1009FE0067080318670FF3077008E4007108E50035
:100A0E007208E6007308E7006408F0006508F1005C
:100A1E006608F2006708F300F00DF10DF20DF30D0C
:100A2E0070107008E4007108E5007208E6007308A3
:100A3E00E7006708303EF00061088400700880000F
:100A4E00E10A6808003A031D382DE9036908003AE7
:100A5E00031D382D610884002E308000E10A01301C
:100A6E00E800E303DE2CFF30610784000008303A13
:100A7E00031D432DE1033A2DFF306107840000086A
:100A8E002E3A031D4B2DE1036908003A0319882DF8
:100A9E006108840065308000E10A80306906F0004C
:100AAE008030003A70020318642D610884002D30E6
:100ABE008000E10A6908003CE9006908E300803023
:100ACE00093AF00080306906700203187A2D0A3058
:100ADE00F4006308F000A0203030F00761088400B5
:100AEE0070088000E10A0A30F4006308F000A020CC
:100AFE007808F0003030F00761088400700880003C
:0C0B0E00E10A610884008001F001080089
:100B1A009F2D803083120313DD00B22DC030DD001B
:100B2A00B22D9430DD00B22DD430DD00B22D8030EC
:100B3A00DD00B22D831203135D08013A03198E2DCD
:100B4A005D08023A0319932D5D08033A0319962D9D
:100B5A005D08043A0319992D9C2D5E03F0005D0887
:100B6A00F0077008DD007008EC002D205110E0013C
:100B7A0060085F07840000080319CB2D60085F072F
:100B8A0084000008EA007D20E00ABD2D5114080007
:100B9A0084260630831603139F0007309C001F2308
:100BAA0041230130EC002D200C30EC002D200130C7
:100BBA00DD000130DE002130DF008D251530FB001D
:100BCA004B30FC00BE30FD00FD0BE92DFC0BE92D7E
:100BDA00FB0BE92D00000130EC002D200330DD0075
:100BEA002A2209237008CB007108CC007208CD00B4
:100BFA007308CE00F630F4002830F5001C30F600F9
:100C0A008130F70000210030F4000030F500203078
:100C1A00F6008330F70052227008D9007108DA0012
:100C2A007208DB007308DC007008DD007108DE0062
:100C3A007208DF007308E0005530E1008F230130AD
:100C4A00EC002D200130DD000130DE004030DF00F5
:100C5A008D250130DD000830DE005530DF008D259E
:100C6A005530EA004A30EB0085200130DD001030B3
:100C7A00DE00DF30DF00F5214830DD00E3211030EF
:100C8A00FB003930FC000D30FD00FD0B4A2EFC0B39
:0E0C9A004A2EFB0B4A2E00000000F32D532EB5
:100D0800213084002A3083120313F0005930CF00B9
:080D18000630D000352308006D
:100CB200533468346F34773469346E346734203493
:100CC200743465346D347034653472346134743420
:080CD2007534723465340034FE
:080CDA004E3461344E34003445
:020CE2000F34CD
:040CE4003034003474
:080CE80049344E344634003457
:100CF000543465346D34703420343D342034003441
:040D00006334003424
:020D04000034B9
:02400E004A2F37
:00000001FF
